:100000006DC3000088C3000086C3000084C30000E5
:1000100082C3000080C300007EC300007CC30000D8
:100020007AC3000078C300000C9417150C94831554
:1000300072C3000070C300006EC300006CC30000F8
:100040006AC3000068C3000066C3000064C3000008
:1000500062C300000C9439095EC300005CC3000059
:100060005AC3000058C3000056C3000054C3000028
:1000700052C3000050C300004EC300004CC3000038
:100080004AC3000048C3000046C3000044C3000048
:1000900042C3000040C300003EC300003CC3000058
:1000A0003AC3000038C3000036C30000140F140F19
:1000B0004210500F4410520F4610540F3E104C0F78
:1000C0003C104A0F2610340F1E11330F2B11320F24
:1000D0003A10480F7410820F7610840F3810460FB4
:1000E000140F140F3210400F3410420F6E107C0F9B
:1000F0006C107A0F14111E10140F140F140F140F1C
:10010000140F140F140F140F14111E102810360F93
:100110002810360F3610440F30103E0FEA12E71247
:10012000CC10DA0FD010DE0FFA100810D410E20F46
:10013000FC100A100A11140F0A11140FEA10F80F1C
:10014000E610F40F6A10780F6210700F5C106A0FDF
:10015000E412E1122E103C0FFE100C10DC10EA0F1E
:10016000DA10E80FD810E60FF8100610140F140F6D
:10017000140F140FF010FE0FE410F20FF61004101D
:10018000EE10FC0FE210F00F60106E0F7210800F77
:10019000DE10EC0FD210E00FF4100210E010EE0FA2
:1001A000F210001052112F0F0011140FEC10FA0F63
:1001B000E810F60FD610E40FCE10DC0F5E106C0FB7
:1001C00070107E0F40104E0FC810D60FC610D40FFF
:1001D000C410D20FC210D00FC010CE0F6410720F17
:1001E0006610740FBE10CC0FBC10CA0FBA10C80F27
:1001F000B810C60FCA10D80F6810760F140F140F5E
:100200002E103C0F3610440F3210400F140F140FF5
:10021000140F140F140F140F72112D0F5F112E0FE6
:10022000140F140F30103E0F3610440F2C103A0FDD
:10023000140F140F130F130F130F130F1E11330F7F
:100240002B11320F140F140F140F140F140F140F5F
:10025000140F140F140F140F140F140F4A10580F0B
:100260004C105A0F4810560F130F130F130F130F84
:1002700085112C0F9F112A0F9512180FB911280FF5
:10028000A212170F130F130F130F130F3E104C0F63
:100290004210500F3A10480F4E105C0F3810460FA6
:1002A000130F130F130F130FAF12160FFA11230FA3
:1002B000ED11240FD311260F8812190F140F140FEC
:1002C000140F140F4E121D0F2112200F7B121A0F44
:1002D00041121E0F1412210F140F140F4511300F6D
:1002E000E011250FAC11290F6E121B0F0712220F00
:1002F0005B121C0F130F130F130F130F140F140F98
:1003000034121F0FC611270F92112B0F140F140F49
:100310008C109A0F3811310FA210B00FA010AE0F31
:100320009E10AC0F9C10AA0F9A10A80F140F140F58
:10033000BC12150F9810A60F9610A40F9410A20FC0
:100340009210A00F90109E0F8E109C0F140F140F80
:10035000140F140F130F130F130F130F140F140F89
:10036000140F140F140F140F140F140F140F140F75
:10037000140F140FB610C40F130F130F140F140F14
:10038000140F140F130F130F4A10580F4C105A0F5D
:100390004810560F140F140F140F140F140F140FCE
:1003A000140F140F140F140FB610C40F140F140FE2
:1003B0005810660F5A10680F140F140F130F130FF5
:1003C0003A10480F4E105C0F3810460F3E104C0F7D
:1003D0004210500F1610140F1610140F140F140F94
:1003E000B410C20FB210C00FB010BE0F5A10680F79
:1003F000140F140F130F130F80108E0F7E108C0F1D
:100400007C108A0F7A10880F7810860F140F140F43
:10041000140F140F140F140FAE10BC0FAC10BA0F42
:10042000AA10B80F5610640F140F140F130F130FE8
:100430008A10980F8810960F8610940F8410920FD0
:100440008210900F140F140F130F130F140F140FAB
:10045000A810B60FA610B40FA410B20F5610640F58
:10046000140F140F130F130F140F140F140F140F76
:10047000140F140F140F140F140F140F140F140F64
:10048000130F130F140F140F2A10380F50105E0F94
:100490005210600F5410620F140F140F140F140F2A
:1004A000130F130F130F130F130F130F130F130F3C
:1004B000130F130F130F130F130F130F130F130F2C
:1004C000130F130F130F130F130F130F130F130F1C
:1004D000140F140F130F130F130F130F130F130F0A
:1004E000130F130F130F130F140F140F140F140FF8
:1004F000140F140F140F140F130F130F130F130FE8
:10050000130F130F130F130F130F130F130F130FDB
:10051000CC10DA0FD010DE0FFA100810D410E20F52
:10052000FC100A10130F130F130F130FE410F20F28
:10053000E610F40F130F130F130F130F130F130FF6
:10054000130F130F130F130FFE100C10DA10E80F18
:10055000F8100610F4100210F2100010140F140F0F
:10056000140F140FF010FE0FEC10FA0FEA10F80F32
:10057000E810F60F5E106C0F130F130F130F130F0D
:10058000DE10EC0FD210E00FF6100410DC10EA0FB2
:10059000D810E60F130F130F0E10140FCE10DC0F30
:1005A000D610E40FEE10FC0FE210F00FE010EE0F8B
:1005B000130F130F130F130FC810D60FC610D40F3D
:1005C000C410D20FC210D00FC010CE0F130F130FD4
:1005D000130F130FBE10CC0FBC10CA0FBA10C80FE8
:1005E000B810C60FCA10D80F130F130F0001000068
:1005F00023061200020000350622002200005706E2
:100600003F00210000470609000300009606040190
:100610000309049A060802030904A406360000012F
:10062000C106001201000200000020501D286000D9
:10063000010102000109022200010100C032090487
:1006400000000103010100092111010001223F0006
:100650000705830308000105010906A1017501953D
:1006600008050719E029E7150025018102950175A4
:100670000881039505750105081901290591029561
:10068000017503910395067508150025680507197E
:100690000029688100C004030904080344004900DC
:1006A0005900000036034500720067006F004400E7
:1006B0006F00780020004500720067006F006E0038
:1006C0006F006D006900630020004B006500790039
:1006D00062006F00610072006400000011241FBE00
:1006E000CFEFDAE0DEBFCDBF11E0A0E0B1E0EEEA8F
:1006F000F3E302C005900D92A631B107D9F712E0DD
:10070000A6E1B1E001C01D92AB33B107E1F70E9451
:100710000D170C94D51974CCEF92FF920F931F9381
:100720007B018C0120E030E040E05FE4B6D288231A
:100730007CF0C801B70120E030E040E05FE460D128
:10074000D9D29B01AC01205030404040504805C0F8
:10075000C801B701CFD29B01AC01B901CA011F91F9
:100760000F91FF90EF900895A0E0B0E0EAEBF3E086
:100770000C94C917DC012B01FA019C91923008F40A
:1007800039C1EB018881823008F433C1943069F4B7
:10079000843009F02FC111969C9111978981981787
:1007A00009F428C1A0E0B1E025C1843009F421C1D9
:1007B0008230A9F4923009F01DC19A01AD0188E0A0
:1007C000EA010990AE01E90109929E018150C1F749
:1007D000E201898111969C918923818308C192301D
:1007E00009F407C112962D903C901397EB018A8172
:1007F0009B811496AD90BD90CD90DC901797EC80C6
:10080000FD800E811F819101281B390BB90137FF33
:1008100004C066277727621B730B603271050CF0EA
:1008200061C0121613066CF537014801062E04C08C
:1008300096948794779467940A94D2F721E030E0F5
:1008400040E050E004C0220F331F441F551F6A953B
:10085000D2F721503040404050402E213F214023CC
:100860005123211531054105510521F021E030E0EA
:1008700040E050E079018A01E628F7280829192983
:100880003CC0232BD1F1260E371E35014601062E22
:1008900004C096948794779467940A94D2F721E0E1
:1008A00030E040E050E004C0220F331F441F551FCA
:1008B0006A95D2F721503040404050402A213B21D8
:1008C0004C215D21211531054105510521F021E023
:1008D00030E040E050E059016A01A628B728C82856
:1008E000D9280BC0821593052CF01C01AA24BB2427
:1008F000650103C0EE24FF24870111969C91D2016B
:1009000011968C91981709F445C0992339F0A801E4
:1009100097012A193B094C095D0906C0A6019501FA
:100920002E193F09400B510B57FD08C0118233822D
:10093000228224833583468357831DC081E08183CF
:100940003382228288279927DC01821B930BA40B18
:10095000B50B84839583A683B7830DC0220F331F05
:10096000441F551F24833583468357838281938197
:100970000197938382832481358146815781DA01EF
:10098000C9010197A109B1098F5F9F4FAF4FBF43C5
:1009900028F30BC0918333822282EA0CFB1C0C1DCE
:1009A0001D1DE482F5820683178383E08083248102
:1009B00035814681578157FF1AC0C901AA2797FD83
:1009C000A095BA2F81709070A070B0705695479521
:1009D00037952795822B932BA42BB52B8483958356
:1009E000A683B78382819381019693838283DF01FB
:1009F00001C0D201CD01CDB7DEB7E2E10C94E5171D
:100A0000A0E2B0E0E6E0F5E00C94D51769837A83C4
:100A10008B839C832D833E834F835887E9E0EE2EA2
:100A2000F12CEC0EFD1ECE010196B7018BD28E018A
:100A30000F5E1F4FCE010596B80184D28A8991E0DE
:100A400089278A8BC701B801AE01475E5F4F8CDEF4
:100A5000A4D1A096E6E00C94F117A0E2B0E0E3E3A5
:100A6000F5E00C94D51769837A838B839C832D835F
:100A70003E834F835887F9E0EF2EF12CEC0EFD1EDC
:100A8000CE010196B7015ED28E010F5E1F4FCE01DF
:100A90000596B80157D2C701B801AE01475E5F4F56
:100AA00063DE7BD1A096E6E00C94F117A0E2B0E003
:100AB000ECE5F5E00C94C91769837A838B839C83FA
:100AC0002D833E834F835887CE010196BE01675F19
:100AD0007F4F38D2CE010596BE016F5E7F4F32D276
:100AE0009985923088F089898230C8F0943019F461
:100AF000823051F404C0843029F4923081F480E0D3
:100B000091E0C6C0923049F420E09A858A89981312
:100B100021E02A87CE010996BBC0823049F420E04B
:100B20009A858A89981321E02A8BCE014196B0C01C
:100B30002D843E844F8458886D887E888F88988C59
:100B4000EE24FF248701AA24BB24650140E050E085
:100B500060E070E0E0E0F0E0C10181709070892B0E
:100B6000E9F0E60CF71C081D191D9A01AB012A0DCE
:100B70003B1D4C1D5D1D80E090E0A0E0B0E0E61460
:100B8000F7040805190520F481E090E0A0E0B0E04A
:100B9000BA01A901480F591F6A1F7B1FAA0CBB1C71
:100BA000CC1CDD1C97FE08C081E090E0A0E0B0E026
:100BB000A82AB92ACA2ADB2A3196E032F10549F07F
:100BC000660C771C881C991C56944794379427947C
:100BD000C3CFFA85EA892B893C898B859C85280FB0
:100BE000391F2E5F3F4F17C0CA0181709070892B4B
:100BF00061F016950795F794E79480E090E0A0E007
:100C0000B0E8E82AF92A0A2B1B2B769567955795A9
:100C100047952F5F3F4F77FDE7CF0CC0440F551F1F
:100C2000661F771F17FD4160EE0CFF1C001F111F90
:100C300021503040403090E0590790E0690790E43F
:100C4000790760F32B8F3C8FDB01CA018F7790709F
:100C5000A070B07080349105A105B10561F447FD25
:100C60000AC0E114F1040105110529F0405C5F4F51
:100C70006F4F7F4F40781A8EFE1711F081E08A8FF8
:100C80004D8F5E8F6F8F78A383E0898FCE01499659
:100C900084D0A096E2E10C94E517A8E1B0E0E3E58A
:100CA000F6E00C94D51769837A838B839C832D831C
:100CB0003E834F83588789E0E82EF12CEC0EFD1E11
:100CC000CE010196B7013ED18E010F5E1F4FCE01BE
:100CD0000596B80137D18985823038F0898982300C
:100CE00020F0C701B801A6D101C08FEF6896E6E0F9
:100CF0000C94F117ACE0B0E0E0E8F6E00C94D91702
:100D000069837A838B839C83CE010196BE016B5FDE
:100D10007F4F18D18D81823061F1823050F1843063
:100D200021F48E81882351F12EC02F81388537FD23
:100D300020C06E812F3131051CF06623F9F023C0ED
:100D40008EE190E0821B930B29853A854B855C856B
:100D500004C056954795379527958A95D2F766230F
:100D6000B1F050954095309521953F4F4F4F5F4FD3
:100D70000EC020E030E040E050E009C02FEF3FEF30
:100D80004FEF5FE704C020E030E040E050E8B901F9
:100D9000CA012C96E2E00C94F517DF92EF92FF92D5
:100DA0000F931F93FC01E480F58006811781D180A9
:100DB0008081823048F480E090E0A0E1B0E0E82A51
:100DC000F92A0A2B1B2BA5C0843009F49FC082305E
:100DD00021F4EE24FF24870105C0E114F10401058C
:100DE000110519F4E0E0F0E096C0628173819FEF95
:100DF000623879070CF05BC022E83FEF261B370B07
:100E00002A3131052CF020E030E040E050E02AC0EB
:100E1000B801A701022E04C07695679557954795AE
:100E20000A94D2F781E090E0A0E0B0E004C0880F1F
:100E3000991FAA1FBB1F2A95D2F70197A109B109D3
:100E40008E219F21A023B1230097A105B10521F098
:100E500081E090E0A0E0B0E09A01AB01282B392BB3
:100E60004A2B5B2BDA01C9018F779070A070B070AC
:100E700080349105A105B10539F427FF09C0205C34
:100E80003F4F4F4F5F4F04C0215C3F4F4F4F5F4F6D
:100E9000E0E0F0E02030A0E03A07A0E04A07A0E45C
:100EA0005A0710F0E1E0F0E079018A0127C06038CC
:100EB000710564F5FB01E158FF4FD801C7018F7739
:100EC0009070A070B07080349105A105B10539F41F
:100ED000E7FE0DC080E490E0A0E0B0E004C08FE346
:100EE00090E0A0E0B0E0E80EF91E0A1F1B1F17FFFC
:100EF00005C016950795F794E794319687E0169507
:100F00000795F794E7948A95D1F705C0EE24FF245E
:100F10008701EFEFF0E06E2F679566276795902FBA
:100F20009F77D794DD24D7948E2F8695492F462B13
:100F3000582F5D29B701CA011F910F91FF90EF90C3
:100F4000DF900895FC01DB01408151812281622FF5
:100F50006F7770E0221F2227221F9381892F880F2D
:100F6000822B282F30E0991F9927991F11969C9367
:100F7000119721153105A9F5411551056105710537
:100F800011F482E037C082E89FEF13969C938E9312
:100F900012979A01AB0167E0220F331F441F551FC0
:100FA0006A95D1F783E08C930DC0220F331F441F45
:100FB000551F12968D919C911397019713969C93B0
:100FC0008E931297203080E0380780E0480780E455
:100FD000580758F314962D933D934D935C931797B0
:100FE00008952F3F310579F44115510561057105CB
:100FF00019F484E08C93089564FF03C081E08C931E
:1010000012C01C9210C02F57304013963C932E9361
:10101000129783E08C9387E0440F551F661F771F5C
:101020008A95D1F7706414964D935D936D937C937C
:10103000179708951F93DC01FB019C91923008F4EF
:1010400047C08081823008F443C0943051F4119637
:101050001C91843099F58181682F70E0611B7109C2
:101060003FC0843021F0923031F48230B9F1818177
:10107000882389F12DC011961C9111978230F1F0CF
:1010800081811817D9F412962D913C911397828182
:1010900093818217930794F028173907BCF01496B0
:1010A0008D919D910D90BC91A02D2481358146811B
:1010B0005781281739074A075B0718F4112341F0B5
:1010C0000AC082179307A407B50740F4112319F04B
:1010D00061E070E005C06FEF7FEF02C060E070E09C
:1010E000CB011F9108951F93CF93DF93EC0169818A
:1010F0008881861B8530E0F0862F90E002968F3F36
:10110000910519F010F01FEF02C0162F1E5F612F1E
:1011100070E0660F771F660F771F8A819B810E94A0
:101120000018009711F481E004C018839B838A8320
:1011300080E0DF91CF911F910895CF93DF93EC0171
:101140001AC0EA81FB81D9011196AA0FBB1FAA0F11
:10115000BB1FAE0FBF1F8D919D910D90BC91A02D17
:10116000220F331F220F331FE20FF31F808391835F
:10117000A283B3836F5F4981262F30E0842F90E0F4
:10118000019728173907ECF241504983CE01ABDFB4
:10119000DF91CF9108951F9380911C0190911D01C3
:1011A000019690931D0180931C0110E01DC0812FBA
:1011B00090E0880F991F880F991FE0912001F0910E
:1011C0002101E80FF91F80819181009749F4028085
:1011D000F381E02D09958EE191E0612FAEDF03C030
:1011E0000197918380831F5F80911F011817F8F288
:1011F0001F9108951F9380911601909117010196F8
:10120000909317018093160110E01DC0812F90E08C
:10121000880F991F880F991FE0911A01F0911B0107
:10122000E80FF91F80819181009749F40280F381D2
:10123000E02D099588E191E0612F7FDF03C00197E0
:10124000918380831F5F809119011817F8F21F9115
:1012500008958AEF87BD92E094BD83E085BD9093A9
:101260006E0080E008952091220130912301C90190
:1012700008951F920F920FB60F9211248F939F9390
:1012800080912201909123010196909323018093F4
:1012900022019F918F910F900FBE0F901F90189574
:1012A000E9EBF0E080818C7F80838CE08093B80054
:1012B000089584EA8093BC008091BC0087FFFCCF36
:1012C0008091B900887F883049F08091B900887F8B
:1012D000803121F08091B900887F089580E00895E1
:1012E00084E98093BC008091BC0084FDFCCF08950C
:1012F0008093BB0084E88093BC008091BC0087FF92
:10130000FCCF8091B900887F883171F08091B9005D
:10131000887F883249F08091B900887F803421F03D
:101320008091B900887F089580E00895FC0184ECE5
:101330008093BC008091BC0087FFFCCF8091BB00F4
:1013400080838091B900887F803511F480E0089512
:101350008091B900887F089580E00895682F80E02B
:101360000C94A413682F81E00C94A4130F931F9383
:1013700081EE0E941A14182F85EE0E941A14082F6D
:1013800080E061EE0E94A41380E065EE0E94A41349
:101390000E94B31481E069E30E94A4130E94B31475
:1013A00080E069E30E94A4130E94B314812F61EED0
:1013B0000E94A413802F65EE0E94A4130E94B31410
:1013C0001F910F910895F89481E08093E00080E2EE
:1013D0008093D800E9ECF0E0108280E29EE401976F
:1013E000F1F71DBA109268001CBC10BE1FBA109213
:1013F0007A0010926E0010926F001092710010929D
:1014000072001082ECEBF0E0108214B817B81AB832
:101410001DB810BA108215B818B81BB81EB811BA8A
:101420000C94003F089590912501292F30E090E021
:101430008217930714F080E0089521503040281B54
:10144000390B220F331FE0912601F0912701E20FA3
:10145000F31F81810895382F20912501E091260105
:10146000F091270190E009C080813296831721F422
:10147000822F8150891B08959F5F9217A8F38FEFE9
:1014800008958091250108951F9360912501809111
:101490002401861B8530F8F0862F90E002968F3F5E
:1014A000910519F010F01FEF02C0162F1E5F612F7B
:1014B00070E0660F771F80912601909127010E94AE
:1014C0000018009711F481E007C010932401909355
:1014D00027018093260180E01F9108951F93BBDFB1
:1014E000182F8F3F49F1209125012150609126014D
:1014F00070912701322F381B2F5F422F50E041504F
:10150000504011C0DF01AA0FBB1FA60FB71F3196B5
:10151000EE0FFF1FE60FF71F9081818111968C93CC
:1015200011979C933F5FE32FF0E0E417F50754F326
:10153000215020932501A8DF812F1F910895DF926C
:10154000EF92FF920F931F93E82EF62ED42E862F44
:1015500082DF182F8F3F81F08091250190E0019765
:10156000811B9109880F991FE0912601F0912701B5
:10157000E80FF91FD18243C0209125012F3F09F4C4
:101580003EC0822F8F5F80932501022F0E1990E0BD
:10159000202F30E0281739071CF476DF882331F03C
:1015A0008091250181508093250129C0409125011A
:1015B0004150209126013091270161E070E014C074
:1015C000E42FF0E0DF01AA0FBB1FA20FB31FE61B41
:1015D000F70BEE0FFF1FE20FF31F90818181119631
:1015E0008C9311979C934150041750F3E02FF0E037
:1015F000EE0FFF1FE20FF31FF082D1821E2D812F0D
:101600001F910F91FF90EF90DF900895CF93DF939C
:10161000EC0166D1882311F081E004C0CE01E2D054
:10162000811182E0DF91CF9108955AD3882311F080
:1016300081E00895ACD0882311F082E008958CDE1B
:1016400080E00895823031F0833031F0813029F428
:10165000259A0895269A0895279A0895823031F0A0
:10166000833031F0813029F4259808952698089523
:1016700027980895823091F08330F1F0813049F558
:10168000CB01BA0120E030E04FE753E40FDA44D851
:1016900070E070938900609388000895CB01BA01CF
:1016A00020E030E04FE753E401DA36D870E0709381
:1016B0008B0060938A000895CB01BA0120E030E0EE
:1016C0004FE753E4F3D928D870E070938D0060930E
:1016D0008C00089581E0B6DF82E0B4DF83E0B2CF12
:1016E00081E0BCDF82E0BADF83E0B8CFEF92FF9207
:1016F0000F931F937B018C0181E0B801A701BADF32
:1017000082E0B801A701B6DF83E0B801A701B2DF2C
:101710001F910F91FF90EF9008956DEC7CEC8CE49D
:101720009DE3E4DFD7CFDCDF60E070E080E09FE3A3
:10173000DDCF81E040E050E060E07FE39BDF82E0CE
:101740009DE020E931E0F9013197F1F70197D9F7F0
:1017500082E040E050E060E07FE38CDF82E09DE0EB
:1017600020E931E0F9013197F1F70197D9F783E0EA
:1017700040E050E060E07FE37DDF82E09DE020E933
:1017800031E0F9013197F1F70197D9F708951F93E7
:1017900090DD80E4ADDD182F882301F580E0A8DD21
:1017A00080E8A6DD8FEFA4DD9BDD83DD80E4A0DD96
:1017B000182F882399F48CE09BDD80E899DD8FEF6A
:1017C00097DD8EDD76DD80E493DD182F882331F4FC
:1017D00084E18EDD8FEF8CDD8FEF8ADD81DD812F5F
:1017E0001F9108959F92AF92BF92CF92DF92EF9296
:1017F000FF920F931F93DF93CF930F92CDB7DEB776
:101800007C01C5DF982E8823A1F0C70140E00EC0FF
:10181000FC01E20FF31F10822F5F3F4F273031058D
:10182000B9F74F5F0E96463009F44CC020E030E027
:10183000EFCF00E010E081E0C82ED12C5E010894CB
:10184000A11CB11C36DD80E453DD82E151DDC6010F
:10185000002E02C0880F991F0A94E2F7809548DD98
:101860003FDD27DD80E444DD83E142DD22DD81E4EC
:101870003FDDC5015BDD34DDF701E00FF11F25E041
:1018800030E0898190E0022E02C0959587950A94F8
:10189000E2F78C259D2581708083215030403E9653
:1018A0008FEF2F3F380769F70F5F1F4F0730110584
:1018B00009F0C8CFFEDC80E41BDD82E119DD8FEF8B
:1018C00017DD0EDD892D0F90CF91DF911F910F91C4
:1018D000FF90EF90DF90CF90BF90AF909F900895D2
:1018E000EF92FF920F931F93CF93DF93FC01209A07
:1018F00085E08A95F1F78FB1178287FD02C081E0FC
:1019000087838F01025F1F4F8FB190E056E096955D
:1019100087955A95E1F721E030E08227932781707F
:10192000D80117968C93BF01645E7F4F8FB190E012
:1019300045E0969587954A95E1F782279327817030
:10194000DB0117968C93AF01465D5F4F8FB190E03E
:10195000B4E096958795BA95E1F782279327817031
:10196000DA0117968C93EF01E8968FB190E0969587
:1019700087958227932781708F8386E4E82EF12C48
:10198000EE0EFF1E8FB182278170D70117968C93C0
:10199000209885E0982F9A95F1F7219A8A95F1F78A
:1019A0008FB1108687FD02C081E080878FB190E003
:1019B000B6E096958795BA95E1F721E030E0822769
:1019C00093278170D80118968C938FB190E0A5E091
:1019D00096958795AA95E1F7822793278170DB0179
:1019E00018968C938FB190E0B4E096958795BA9550
:1019F000E1F7822793278170DA0118968C938FB1D3
:101A000090E09695879582279327817088878FB17C
:101A100082278170D70118968C93219885E0982FA2
:101A20009A95F1F7229A8A95F1F78FB1118687FD81
:101A300002C081E081878FB190E0B6E096958795EE
:101A4000BA95E1F721E030E0822793278170D80131
:101A500019968C938FB190E0A5E096958795AA95FD
:101A6000E1F7822793278170DB0119968C938FB160
:101A700090E0B4E096958795BA95E1F78227932791
:101A80008170DA0119968C938FB190E096958795C5
:101A900082279327817089878FB182278170D70130
:101AA00019968C93229885E0982F9A95F1F7239AAE
:101AB0008A95F1F78FB1128687FD02C081E0828797
:101AC0008FB190E0B6E096958795BA95E1F721E061
:101AD00030E0822793278170D8011A968C938FB1BA
:101AE00090E0A5E096958795AA95E1F78227932740
:101AF0008170DB011A968C938FB190E0B4E09695DB
:101B00008795BA95E1F7822793278170DA011A96B3
:101B10008C938FB190E0969587958227932781705B
:101B20008A878FB182278170D7011A968C93239868
:101B300085E0982F9A95F1F7529A8A95F1F78FB12F
:101B4000138687FD02C081E083878FB190E0B6E005
:101B500096958795BA95E1F721E030E082279327A3
:101B60008170D8011B968C938FB190E0A5E096957B
:101B70008795AA95E1F7822793278170DB011B9651
:101B80008C938FB190E0B4E096958795BA95E1F784
:101B9000822793278170DA011B968C938FB190E096
:101BA000969587958227932781708B878FB182279F
:101BB0008170D7011B968C93529885E0982F9A9547
:101BC000F1F7539A8A95F1F78FB1148687FD02C019
:101BD00081E084878FB190E0B6E096958795BA95BD
:101BE000E1F721E030E0822793278170D8011C962D
:101BF0008C938FB190E0A5E096958795AA95E1F733
:101C0000822793278170DB011C968C938FB190E023
:101C1000B4E096958795BA95E1F78227932781706E
:101C2000DA011C968C938FB190E096958795822768
:101C3000932781708C878FB182278170D7011C9682
:101C40008C93539885E0982F9A95F1F73E9A8A9550
:101C5000F1F78FB1158687FD02C081E085878FB1CE
:101C600090E0F6E096958795FA95E1F721E030E06F
:101C7000822793278170F80185878FB190E0E5E096
:101C800096958795EA95E1F7822793278170DB0186
:101C90001D968C938FB190E064E0969587956A9538
:101CA000E1F7822793278170FA0185878FB190E051
:101CB000969587958227932781708D878FB182278C
:101CC0008170D7011D968C933E9885E08A95F1F737
:101CD00080E0DF91CF911F910F91FF90EF900895D9
:101CE000E1E6F0E080E88083108256985E982498C0
:101CF0002C98F6DC89EA8093800089E0809381004B
:101D0000CFDA3F9885E0982F9A95F1F75798982F5A
:101D10009A95F1F75498982F9A95F1F75598982F2E
:101D20009A95F1F76E98982F9A95F1F7479A982F10
:101D30009A95F1F75F9A982F9A95F1F75C9A982FF8
:101D40009A95F1F75D9A982F9A95F1F7769A982FD0
:101D50009A95F1F78798982F9A95F1F78698982F8A
:101D60009A95F1F78598982F9A95F1F78498982F7E
:101D70009A95F1F78198982F9A95F1F78098982F76
:101D80009A95F1F72098982F9A95F1F72198982F26
:101D90009A95F1F72298982F9A95F1F72398982F12
:101DA0009A95F1F75298982F9A95F1F75398982FA2
:101DB0009A95F1F73E98982F9A95F1F78F9A982F68
:101DC0009A95F1F78E9A982F9A95F1F78D9A982F08
:101DD0009A95F1F78C9A982F9A95F1F7899A982FFE
:101DE0009A95F1F7889A982F9A95F1F72898982F55
:101DF0009A95F1F72998982F9A95F1F72A98982FA4
:101E00009A95F1F72B98982F9A95F1F75A98982F61
:101E10009A95F1F75B98982F9A95F1F746988A95DD
:101E2000F1F780E0089508950895089508950895BC
:101E300008950895089508950895089508950895BA
:101E400008950895089508950895089508950895AA
:101E5000089508950895089508950895089508959A
:101E6000089508950895089586E478CA85E676CAA7
:101E700083E574CA87EE72CA83EE70CA84EE6ECAB6
:101E800080EE6CCA82EE6ACA86EE68CA8EE466CAC2
:101E90008BE464CA89E462CA8AE460CA89E25ECAE1
:101EA0008DE45CCA8CE45ACA8AE258CA8FE456CAE6
:101EB00080E554CA81E552CA82E550CA84E54ECA1B
:101EC00085E54CCA86E54ACA87E548CA83E646CA1C
:101ED00088E544CA88E342CA83E340CA84E33ECA31
:101EE00087E33CCA85E33ACA8EE238CA8DE236CA35
:101EF00086E334CA80E332CA8FE230CA81E32ECA55
:101F00008BE22CCA8CE22ACA88E228CA81E726CA58
:101F100080E724CA8FE622CA8EE620CA8DE61ECA52
:101F20008CE61CCA8BE61ACA8AE618CA89E616CA63
:101F300088E614CA85E412CA84E410CA83E40ECA8F
:101F400082E40CCA81E40ACA80E408CA8FE306CAA4
:101F50008EE304CA8DE302CA8CE300CA8BE3FEC998
:101F60008AE3FCC981E6FAC980E6F8C98FE5F6C9BB
:101F70008EE5F4C98DE5F2C98CE5F0C98BE5EEC9B3
:101F80008AE5ECC989E5EAC982E6E8C986E2E6C9DC
:101F900085E2E4C984E2E2C983E2E0C982E2DEC903
:101FA00081E2DCC980E2DAC98FE1D8C98EE1D6C905
:101FB00087E2D4C98DE1D2C98CE1D0C98BE1CEC909
:101FC0008AE1CCC989E1CAC988E1C8C987E1C6C923
:101FD00086E1C4C985E1C2C984E1C0C983E1BEC943
:101FE00082E1BCC981E1BAC980E1B8C98FE0B6C954
:101FF0008EE0B4C98DE0B2C98CE0B0C98BE0AEC947
:102000008AE0ACC989E0AAC988E0A8C987E0A6C966
:1020100086E0A4C985E0A2C984E0A0C983E05EDAB5
:1020200080910E018E7F80930E01089582E056DA32
:1020300080910E018E7F80930E01089581E04EDA2B
:1020400080910E018E7F80930E01089586E48AC9E7
:1020500085E688C983E586C987EE84C983EE82C98F
:1020600084EE80C980EE7EC982EE7CC986EE7AC994
:102070008EE478C98BE476C989E474C98AE472C9AC
:1020800089E270C98DE46EC98CE46CC98AE26AC9C0
:102090008FE468C980E566C981E564C982E562C9E3
:1020A00084E560C985E55EC986E55CC987E55AC9EE
:1020B00083E658C988E556C988E354C983E352C901
:1020C00084E350C987E34EC985E34CC98EE24AC90F
:1020D0008DE248C986E346C980E344C98FE242C91C
:1020E00081E340C98BE23EC98CE23CC988E23AC92F
:1020F00081E738C980E736C98FE634C98EE632C930
:102100008DE630C98CE62EC98BE62CC98AE62AC931
:1021100089E628C988E626C985E424C984E422C959
:1021200083E420C982E41EC981E41CC980E41AC981
:102130008FE318C98EE316C98DE314C98CE312C965
:102140008BE310C98AE30EC981E60CC980E60AC98F
:102150008FE508C98EE506C98DE504C98CE502C97D
:102160008BE500C98AE5FEC889E5FCC882E6FAC8A5
:1021700086E2F8C885E2F6C884E2F4C883E2F2C8D1
:1021800082E2F0C881E2EEC880E2ECC88FE1EAC8E2
:102190008EE1E8C887E2E6C88DE1E4C88CE1E2C8D8
:1021A0008BE1E0C88AE1DEC889E1DCC888E1DAC8F1
:1021B00087E1D8C886E1D6C885E1D4C884E1D2C811
:1021C00083E1D0C882E1CEC881E1CCC880E1CAC831
:1021D0008FE0C8C88EE0C6C88DE0C4C88CE0C2C815
:1021E0008BE0C0C88AE0BEC889E0BCC888E0BAC835
:1021F00087E0B8C886E0B6C885E0B4C884E0B2C855
:1022000080E063E043E09BD980910E018E7F809354
:102210000E01089580E062E042E091D980910E01C4
:102220008E7F80930E01089580E061E041E087D9C0
:1022300080910E018E7F80930E01089581E063EE00
:1022400083D281E060E580D28ED380E063EE7CD2E1
:1022500080E060E579C281E063EE76D281E06FE4F0
:1022600073D281D380E063EE6FD280E06FE46CC202
:1022700081E062EE69D281E06DE366D274D380E0E2
:1022800062EE62D280E06DE35FC281E062EE5CD21A
:1022900081E06BE259D267D380E062EE55D280E0F4
:1022A0006BE252C281E062EE4FD281E06CE24CD22E
:1022B0005AD380E062EE48D280E06CE245C281E011
:1022C00062EE42D281E060EE3FD281E06DE43CD22A
:1022D0004AD380E062EE38D280E060EE35D280E012
:1022E0006DE432C281E062EE2FD281E060EE2CD24A
:1022F00081E06CE429D237D380E062EE25D280E021
:1023000060EE22D280E06CE41FC281E060EE1CD25D
:1023100081E06DE119D227D380E060EE15D280E034
:102320006DE112C281E060EE0FD281E06CE10CD26F
:102330001AD380E060EE08D280E06CE105C281E053
:1023400060EE02D281E06BE1FFD10DD380E060EE60
:10235000FBD180E06BE1F8C181E060EEF5D181E076
:102360006AE1F2D100D380E060EEEED180E06AE174
:10237000EBC181E060EEE8D181E069E1E5D1F3D223
:1023800080E060EEE1D180E069E1DEC181E060EEF5
:10239000DBD181E068E1D8D1E6D280E060EED4D133
:1023A00080E068E1D1C181E060EECED181E067E1FB
:1023B000CBD1D9D280E060EEC7D180E067E1C4C163
:1023C00081E063EEC1D181E066E1BED1CCD280E094
:1023D00063EEBAD180E066E1B7C181E060EEB4D1CE
:1023E00081E066E1B1D1BFD280E060EEADD180E0A6
:1023F00066E1AAC181E063EEA7D181E065E1A4D1E5
:10240000B2D280E063EEA0D180E065E19DC181E0C1
:1024100060EE9AD181E063E197D1A5D280E060EED1
:1024200093D180E063E190C181E060EE8DD181E0E5
:1024300062E18AD198D280E060EE86D180E062E1EC
:1024400083C181E060EE80D181E061EE7DD181E0E9
:1024500061E17AD188D280E060EE76D180E061EEF1
:1024600073D180E061E170C181E060EE6DD181E007
:102470006FE06AD178D280E060EE66D180E06FE0F4
:1024800063C181E060EE60D181E06CE05DD16BD230
:1024900080E060EE59D180E06CE056C181E060EEF2
:1024A00053D181E06BE050D15ED280E060EE4CD140
:1024B00080E06BE049C181E060EE46D181E063EEEF
:1024C00043D181E06AE040D14ED280E060EE3CD161
:1024D00080E063EE39D180E06AE036C181E060EEF1
:1024E00033D181E069E030D13ED280E060EE2CD182
:1024F00080E069E029C181E063EE26D181E068E0F7
:1025000023D131D280E063EE1FD180E068E01CC1AE
:1025100081E062EE19D181E067E016D124D280E03B
:1025200062EE12D180E067E00FC181E060EE0CD175
:1025300081E066E009D117D280E060EE05D180E04D
:1025400066E002C181E060EEFFD081E065E0FCD092
:102550000AD280E060EEF8D080E065E0F5C081E06E
:1025600060EEF2D081E064E0EFD0FDD180E060EE7B
:10257000EBD080E064E0E8C00C94E30908950F9389
:102580001F93182F062F882341F0809128018F5F19
:1025900080932801862F0E94B20980912801823001
:1025A00029F4112329F00E94B60908C0112331F43F
:1025B000815080932801802F0E94AE091F910F91B6
:1025C000089580E065EEDBCF81E065EED8CF80E056
:1025D00061EED5CF81E061EED2CF8E3429F0833524
:1025E00039F0833439F402C081E001C082E036C89A
:1025F00083E034C808958E3429F0833539F083346C
:1026000039F402C081E001C082E01CC883E01AC82E
:102610000895AF92BF92CF92DF92EF92FF920F9305
:102620001F93CF93DF93082FF62EE42E242F30E054
:10263000E901CC0FDD1FCC0FDD1F88E3689FC001CF
:102640001124C80FD91F10E0F0E5AF2EF1E0BF2E26
:1026500069015FC01123A9F4002309F059C08F2D2F
:1026600090E0880F991FFC0173E0EE0FFF1F7A9531
:10267000E1F7E81BF90BEC0DFD1DE75DFE4F408116
:1026800007C0812F81500E94130A482F002319F49C
:1026900022E030E002C020E030E0842F90E08A9D0C
:1026A000F0018B9DF00D9A9DF00D1124EC0FFD1F94
:1026B000E20FF31FE455FF4F259134918FE0233152
:1026C000380731F12115310519F1002389F08F2DDB
:1026D00090E0880F991FFC0153E0EE0FFF1F5A9501
:1026E000E1F7E81BF90BEE0DF11DE75DFE4F4083AE
:1026F000017080910E018E7F802B80930E01F90175
:10270000099580910E0180FF0EC00E94CB080BC07E
:102710001F5F0E94410A90E00196212F30E082174E
:1027200093070CF097CFDF91CF911F910F91FF90FE
:10273000EF90DF90CF90BF90AF9008952DD1811191
:1027400081E0089512C10895662309F471C0633EC3
:1027500061F1643E40F4613EC1F0623EF0F4603EDF
:1027600009F04DC00AC0653E81F1653E30F1663E1C
:10277000A1F1673E09F043C03AC090917D018823E2
:1027800011F0916031C09E7F2FC090917D01882310
:1027900011F0926029C09D7F27C090917D01882310
:1027A00011F0946021C09B7F1FC090917D01882310
:1027B00011F0986019C0977F17C090917D01882310
:1027C00011F0906111C09F7E0FC090917D01882310
:1027D00011F0906209C09F7D07C090917D01882310
:1027E00011F0906401C09F7B90937D011AC090917D
:1027F0007D01882311F09068F7CF9F77F5CFAEE782
:10280000B1E0E0E0F0E09C91882331F0992359F4A5
:10281000E258FE4F608305C0961729F4E258FE4F38
:10282000108280E0089531961196E630F10559F74F
:1028300081E00895982F882309F45EC0833E21F13A
:10284000843E40F4813E91F0823EB0F4803E09F037
:1028500047C009C0853E51F1853EF8F0863E79F1CA
:10286000873EF1F537C090917D0132C080917D01A6
:1028700090E0969587952BC080917D0190E096958C
:1028800087959695879523C080917D0190E053E0D0
:10289000969587955A95E1F71AC080917D0190E051
:1028A00044E0969587954A95E1F711C080917D01A6
:1028B00090E035E0969587953A95E1F708C08091CC
:1028C0007D0190E026E0969587952A95E1F7982F6F
:1028D000917013C090E080917D0187FF0EC005C00C
:1028E000EEE7F1E08081891711F491E006C031969E
:1028F00081E0E438F807B1F790E0892F08958E342D
:1029000069F08F342CF4833461F08B3429F421C0C6
:102910008F34A9F0833559F080E0089580918401C7
:1029200016C08091840190E09695879510C08091A3
:10293000840190E0969587959695879508C080913B
:10294000840190E0F3E096958795FA95E1F7817020
:1029500008958091840190E0E4E096958795EA954A
:10296000E1F7817008951BC0089581E08093D7003E
:1029700080EA8093D80082E189BD09B400FEFDCFD2
:1029800080E98093D8001092E000109285018CE0DD
:102990008093E20078940895809185010895809154
:1029A0008501882309F441C02FB7F89483E0809310
:1029B000E9009091E4009E5C33E08091E80085FDA1
:1029C0000EC02FBF80918501882379F18091E400AA
:1029D000891759F12FB7F8943093E900EECF809121
:1029E0007D018093F1001092F10080917E0180932F
:1029F000F10080917F018093F100809180018093AC
:102A0000F100809181018093F10080918201809397
:102A1000F100809183018093F1008AE38093E800C4
:102A2000109286012FBF80E008958FEF08951F92C6
:102A30000F920FB60F9211242F938F939F93809133
:102A4000E1001092E100982F83FF0FC01092E9007F
:102A500081E08093EB001092EC0082E28093ED0025
:102A600088E08093F0001092850192FF44C080912D
:102A70008501882309F43FC020910F012223D9F159
:102A8000809187018F5F8093870190E083709070C1
:102A9000892B89F583E08093E9008091E80085FF28
:102AA0002AC0809186018F5F80938601821719F575
:102AB0001092860180917D018093F1001092F100C7
:102AC00080917E018093F10080917F018093F100DD
:102AD000809180018093F100809181018093F100C9
:102AE000809182018093F100809183018093F100B5
:102AF0008AE38093E8009F918F912F910F900FBEF2
:102B00000F901F9018951F920F920FB60F921124DD
:102B10000F931F932F933F934F935F936F937F93E5
:102B20008F939F93AF93BF93EF93FF931092E9001E
:102B30008091E80083FF5BC14091F1003091F1008A
:102B40008091F100682F70E02091F100922F80E0D9
:102B5000682B792B8091F100A82FB0E02091F10033
:102B6000922F80E0A82BB92B1091F1000091F10079
:102B700082EF8093E800363009F05AC023EF35E049
:102B8000A90145505040F9013797859194918617D6
:102B9000970701F5FA01859194918A179B07D1F463
:102BA0009A012E5F3F4FF901659174912E5F3F4F5F
:102BB000F9014491212F30E0902F80E0282B392B10
:102BC0002F3F310519F010F02FEF30E0241758F4A3
:102BD000422F09C0295F3F4F495F5F4FF6E0243223
:102BE0003F0789F604C15EEF8091E800282F30E0AE
:102BF000C90185709070892BB9F322FDFBC0342F79
:102C0000413208F030E2232FCB0106C0FC010196CF
:102C1000E491E093F10021502223C1F7630F711D6D
:102C2000431B5093E8004423F9F63032E9F2E2C046
:102C3000353061F48EEF8093E8008091E80080FFEA
:102C4000FCCF862F80688093E300D4C0393031F503
:102C5000442309F071C0609385018EEF8093E800F2
:102C60008DE196E021E02093E900FC010196E491DA
:102C7000E093EB00EE2369F0AC014F5F5F4FFC0186
:102C800084918093EC00CA010196FA01349130934B
:102C9000ED002F5F253039F78EE149C0383051F40F
:102CA000403809F049C08091E80080FFFCCF809156
:102CB00085017BC03323D1F48091E80080FFFCCFF5
:102CC000423811F080E00DC0A093E9008091EB0044
:102CD00090E025E0969587952A95E1F7817010920E
:102CE000E9008093F1001092F1007DC0313011F0C5
:102CF000333011F5423001F561157105E9F42A2FE1
:102D00002F77822F81508430B8F48EEF8093E800C3
:102D10002093E900333009F46AC089E18093EB0025
:102D200081E090E002C0880F991F2A95E2F7809316
:102D3000EA001092EA005EC0AB2B09F058C0413A9D
:102D4000B9F5313009F58091E80080FFFCCF809122
:102D50007D018093F1001092F10080917E018093BB
:102D6000F10080917F018093F10080918001809338
:102D7000F100809181018093F10080918201809324
:102D8000F1008091830111C0323039F48091E80064
:102D900080FFFCCF80910F0108C0333041F5809156
:102DA000E80080FFFCCF809110018093F1001BC0F0
:102DB0004132E9F4393061F48091E80082FFFCCFC0
:102DC0008091F100809384018BEF8093E8000BC029
:102DD0003A3029F470930F011092860104C03B3001
:102DE00031F4609310018EEF8093E80003C081E21C
:102DF0008093EB00FF91EF91BF91AF919F918F91E5
:102E00007F916F915F914F913F912F911F910F9102
:102E10000F900FBE0F901F9018950E94150B0E94E7
:102E20008D0B90DC8BDC8823E9F30E94990B0E94C8
:102E300029090E94930B0E94330985508093300228
:102E4000209111013091120130933402209333020A
:102E500080911301909114019093120180931101BC
:102E600030931401209313010E9433099091300292
:102E7000891B8530C8F30E9433098093300280910A
:102E80001101909112010E94060B1092360247C068
:102E9000109235023AC04A2F50E0E0911101F091B2
:102EA0001201862F90E0880F991F9C0173E0220F7A
:102EB000331F7A95E1F7281B390B240F351FE20FDA
:102EC000F31F708170933202E0911301F0911401AD
:102ED000862F90E0880F991F9C01B3E0220F331FCB
:102EE000BA95E1F7281B390B240F351FE20FF31FAA
:102EF000808180933102781719F0872F4A2F89DB60
:102F0000809135028F5F80933502A09135026091E8
:102F10003602AE3008F4BFCF6F5F60933602809107
:102F20003602863008F4B4CF1EDD8091150180FF93
:102F30002DC08EE4E4DC882319F08EE45CDB02C053
:102F40008EE44BDB83E4DBDC882319F083E453DB82
:102F500002C083E442DB83E5D2DC882319F083E5F9
:102F60004ADB02C083E539DB8FE4C9DC882319F032
:102F70008FE441DB02C08FE430DB8BE4C0DC8823CC
:102F800019F08BE438DB02C08BE427DB0E94FA08DF
:102F900057CF2F923F924F925F926F927F928F9274
:102FA0009F92AF92BF92CF92DF92EF92FF920F93D8
:102FB0001F93CF93DF93CDB7DEB7CA1BDB0B0FB6E2
:102FC000F894DEBF0FBECDBF09942A88398848889F
:102FD0005F846E847D848C849B84AA84B984C88435
:102FE000DF80EE80FD800C811B81AA81B981CE0F2C
:102FF000D11D0FB6F894DEBF0FBECDBFED01089511
:10300000A0E0B0E0E5E0F8E1CACF8C01009721F440
:10301000CB01C6D08C01B6C09EEFE92E9FEFF92EF2
:10302000E00EF11E5801A60EB71EAE14BF0408F440
:10303000A7C08EEF882E8FEF982E8A0C9B1CE7017D
:103040004881598146175707B0F04530510508F4BB
:1030500099C0CA0104978617970708F493C0425095
:103060005040461B570BF40151834083798368839A
:10307000C50143D187C06B01C41AD50AE09139025A
:10308000F0913A02A0E0B0E0C0E0D0E042C0E81524
:10309000F905A1F5208131812C153D0578F1C90193
:1030A00002968C159D05A8F04E5F5F4F420F531F8F
:1030B000E7015983488322813381109729F01396C1
:1030C0003C932E9312975EC030933A0220933902BC
:1030D00059C0225030402C193D093183208310976C
:1030E00029F01396FC93EE93129704C0F0933A02E2
:1030F000E0933902F7017183608344C0808191813C
:10310000C817D90708F4EC01DF01828193819C0183
:10311000F901309709F0BBCF400F511F8091370262
:103120009091380284179507E9F4C617D707D0F4B1
:1031300020910C0130910D012115310541F42DB77D
:103140003EB78091080190910901281B390BA21606
:10315000B306B0F4B0923802A0923702E701798347
:10316000688310C0CB011CD0EC01009749F0F70137
:1031700040815181B8010BD0C801BFD08E0102C07F
:1031800000E010E0C801CDB7DEB7ECE024CFFB01D2
:10319000DC0102C001900D9241505040D8F70895D3
:1031A000CF93DF93BC018230910510F462E070E0B0
:1031B000A0913902B0913A02ED01E0E0F0E040E088
:1031C00050E021C0888199818617970769F48A8128
:1031D0009B81309719F09383828304C090933A02C5
:1031E00080933902FE0134C06817790738F441151D
:1031F000510519F08417950708F4AC01FE018A8186
:103200009B819C01E9012097E9F641155105A9F13F
:10321000CA01861B970B049708F4BA01E0E0F0E0BE
:103220002AC08D919C91119784179507F9F4641722
:10323000750781F412968D919C911397309719F030
:103240009383828304C090933A0280933902FD01F4
:1032500032964FC0CA01861B970BFD01E80FF91F7C
:103260006193719302978D939C9343C0FD0182817A
:1032700093819C01D9011097A1F68091370290911A
:103280003802892B41F480910A0190910B019093AF
:1032900038028093370240910C0150910D01411585
:1032A000510541F44DB75EB7809108019091090135
:1032B000481B590B209137023091380224173507EB
:1032C000B0F4CA01821B930B8617970780F0AB01FD
:1032D0004E5F5F4F8417950750F0420F531F509376
:1032E000380240933702F9016193719302C0E0E024
:1032F000F0E0CF01DF91CF910895CF93DF93009756
:1033000009F450C0EC0122971B821A82A091390265
:10331000B0913A02109709F140E050E0AC17BD07B8
:1033200008F1BB83AA83FE0121913191E20FF31FC3
:10333000AE17BF0779F48D919C911197280F391F13
:103340002E5F3F4F3983288312968D919C9113975E
:103350009B838A834115510571F4D0933A02C0933F
:10336000390220C012968D919C911397AD01009760
:1033700011F0DC01D3CFFA01D383C28321913191C3
:10338000E20FF31FCE17DF0769F488819981280FB8
:10339000391F2E5F3F4FFA01318320838A819B8141
:0E33A00093838283DF91CF910895F894FFCF3D
:1033AE00000000000000000020003B020000017D34
:0633BE00018801DC0101A1
:00000001FF
